{
  "contractName": "SimpleOracle",
  "abi": [
    {
      "inputs": [
        {
          "internalType": "uint256",
          "name": "initialValue",
          "type": "uint256"
        }
      ],
      "stateMutability": "nonpayable",
      "type": "constructor"
    },
    {
      "anonymous": false,
      "inputs": [
        {
          "indexed": false,
          "internalType": "uint256",
          "name": "newValue",
          "type": "uint256"
        }
      ],
      "name": "ValueUpdated",
      "type": "event"
    },
    {
      "inputs": [],
      "name": "value",
      "outputs": [
        {
          "internalType": "uint256",
          "name": "",
          "type": "uint256"
        }
      ],
      "stateMutability": "view",
      "type": "function",
      "constant": true
    },
    {
      "inputs": [],
      "name": "getValue",
      "outputs": [
        {
          "internalType": "uint256",
          "name": "",
          "type": "uint256"
        }
      ],
      "stateMutability": "view",
      "type": "function",
      "constant": true
    },
    {
      "inputs": [
        {
          "internalType": "uint256",
          "name": "newValue",
          "type": "uint256"
        }
      ],
      "name": "updateValue",
      "outputs": [],
      "stateMutability": "nonpayable",
      "type": "function"
    }
  ],
  "bytecode": "0x608060405234801561001057600080fd5b5060405161025a38038061025a83398181016040528101906100329190610054565b806000819055505061009e565b60008151905061004e81610087565b92915050565b60006020828403121561006657600080fd5b60006100748482850161003f565b91505092915050565b6000819050919050565b6100908161007d565b811461009b57600080fd5b50565b6101ad806100ad6000396000f3fe608060405234801561001057600080fd5b50600436106100415760003560e01c806320965255146100465780633fa4f24514610064578063573c0bd314610082575b600080fd5b61004e61009e565b60405161005b919061013b565b60405180910390f35b61006c6100a7565b604051610079919061013b565b60405180910390f35b61009c60048036038101906100979190610103565b6100ad565b005b60008054905090565b60005481565b806000819055507f4273d0736f60e0dedfe745e86718093d8ec8646ebd2a60cd60643eeced565811816040516100e3919061013b565b60405180910390a150565b6000813590506100fd81610160565b92915050565b60006020828403121561011557600080fd5b6000610123848285016100ee565b91505092915050565b61013581610156565b82525050565b6000602082019050610150600083018461012c565b92915050565b6000819050919050565b61016981610156565b811461017457600080fd5b5056fea2646970667358221220f5483e38d8a229fd50e862532bfb297467ab687e6649134751855d523d8c326664736f6c63430008000033",
  "immutableReferences": {},
  "source": "// SPDX-License-Identifier: MIT\r\npragma solidity ^0.8.0;\r\n\r\ncontract SimpleOracle {\r\n    uint256 public value;\r\n\r\n    // Event to log value changes\r\n    event ValueUpdated(uint256 newValue);\r\n\r\n    // Constructor to initialize the value\r\n    constructor(uint256 initialValue) {\r\n        value = initialValue;\r\n    }\r\n\r\n    // Function to get the current value\r\n    function getValue() public view returns (uint256) {\r\n        return value;\r\n    }\r\n\r\n    // Function to update the value, only the owner can update it\r\n    function updateValue(uint256 newValue) public {\r\n        value = newValue;\r\n        emit ValueUpdated(newValue);\r\n    }\r\n}\r\n",
  "sourcePath": "D:\\final year project\\project folder\\Final-year-full-sem\\blockchain-oracle\\contracts\\Oracle.sol",
  "compiler": {
    "name": "solc",
    "version": "0.8.0+commit.c7dfd78e.Emscripten.clang"
  },
  "schemaVersion": "3.4.16",
  "updatedAt": "2025-02-06T06:03:24.007Z",
  "networkType": "ethereum",
  "devdoc": {
    "kind": "dev",
    "methods": {},
    "version": 1
  },
  "userdoc": {
    "kind": "user",
    "methods": {},
    "version": 1
  }
}